{
  "contractName": "bet",
  "abi": [
    {
      "inputs": [],
      "stateMutability": "payable",
      "type": "constructor"
    },
    {
      "anonymous": false,
      "inputs": [
        {
          "indexed": false,
          "internalType": "address",
          "name": "sender",
          "type": "address"
        },
        {
          "indexed": false,
          "internalType": "uint256",
          "name": "amount",
          "type": "uint256"
        }
      ],
      "name": "Deposit",
      "type": "event"
    },
    {
      "anonymous": false,
      "inputs": [
        {
          "indexed": false,
          "internalType": "address",
          "name": "adres",
          "type": "address"
        },
        {
          "indexed": false,
          "internalType": "uint256",
          "name": "amount",
          "type": "uint256"
        },
        {
          "components": [
            {
              "internalType": "string",
              "name": "name",
              "type": "string"
            },
            {
              "internalType": "uint256",
              "name": "totalBetAmount",
              "type": "uint256"
            }
          ],
          "indexed": false,
          "internalType": "struct bet.Team",
          "name": "teamBet",
          "type": "tuple"
        }
      ],
      "name": "NewBet",
      "type": "event"
    },
    {
      "anonymous": false,
      "inputs": [
        {
          "indexed": true,
          "internalType": "address",
          "name": "previousOwner",
          "type": "address"
        },
        {
          "indexed": true,
          "internalType": "address",
          "name": "newOwner",
          "type": "address"
        }
      ],
      "name": "OwnershipTransferred",
      "type": "event"
    },
    {
      "anonymous": false,
      "inputs": [
        {
          "indexed": false,
          "internalType": "address",
          "name": "sender",
          "type": "address"
        },
        {
          "indexed": false,
          "internalType": "address",
          "name": "receiver",
          "type": "address"
        },
        {
          "indexed": false,
          "internalType": "uint256",
          "name": "amount",
          "type": "uint256"
        }
      ],
      "name": "Transfer",
      "type": "event"
    },
    {
      "anonymous": false,
      "inputs": [
        {
          "indexed": false,
          "internalType": "address",
          "name": "receiver",
          "type": "address"
        },
        {
          "indexed": false,
          "internalType": "uint256",
          "name": "amount",
          "type": "uint256"
        }
      ],
      "name": "Withdrawal",
      "type": "event"
    },
    {
      "inputs": [
        {
          "internalType": "address",
          "name": "",
          "type": "address"
        }
      ],
      "name": "balances",
      "outputs": [
        {
          "internalType": "uint256",
          "name": "",
          "type": "uint256"
        }
      ],
      "stateMutability": "view",
      "type": "function"
    },
    {
      "inputs": [
        {
          "internalType": "uint256",
          "name": "",
          "type": "uint256"
        }
      ],
      "name": "bets",
      "outputs": [
        {
          "internalType": "string",
          "name": "name",
          "type": "string"
        },
        {
          "internalType": "address",
          "name": "adres",
          "type": "address"
        },
        {
          "internalType": "uint256",
          "name": "amount",
          "type": "uint256"
        },
        {
          "components": [
            {
              "internalType": "string",
              "name": "name",
              "type": "string"
            },
            {
              "internalType": "uint256",
              "name": "totalBetAmount",
              "type": "uint256"
            }
          ],
          "internalType": "struct bet.Team",
          "name": "teamBet",
          "type": "tuple"
        }
      ],
      "stateMutability": "view",
      "type": "function"
    },
    {
      "inputs": [],
      "name": "deposit",
      "outputs": [],
      "stateMutability": "payable",
      "type": "function"
    },
    {
      "inputs": [
        {
          "internalType": "uint256",
          "name": "val",
          "type": "uint256"
        }
      ],
      "name": "depositBro",
      "outputs": [],
      "stateMutability": "payable",
      "type": "function"
    },
    {
      "inputs": [],
      "name": "isOwner",
      "outputs": [
        {
          "internalType": "bool",
          "name": "",
          "type": "bool"
        }
      ],
      "stateMutability": "view",
      "type": "function"
    },
    {
      "inputs": [
        {
          "internalType": "address",
          "name": "",
          "type": "address"
        }
      ],
      "name": "numBetsAddress",
      "outputs": [
        {
          "internalType": "uint256",
          "name": "",
          "type": "uint256"
        }
      ],
      "stateMutability": "view",
      "type": "function"
    },
    {
      "inputs": [],
      "name": "owner",
      "outputs": [
        {
          "internalType": "address",
          "name": "",
          "type": "address"
        }
      ],
      "stateMutability": "view",
      "type": "function"
    },
    {
      "inputs": [],
      "name": "renounceOwnership",
      "outputs": [],
      "stateMutability": "nonpayable",
      "type": "function"
    },
    {
      "inputs": [
        {
          "internalType": "uint256",
          "name": "",
          "type": "uint256"
        }
      ],
      "name": "teams",
      "outputs": [
        {
          "internalType": "string",
          "name": "name",
          "type": "string"
        },
        {
          "internalType": "uint256",
          "name": "totalBetAmount",
          "type": "uint256"
        }
      ],
      "stateMutability": "view",
      "type": "function"
    },
    {
      "inputs": [],
      "name": "totalBetMoney",
      "outputs": [
        {
          "internalType": "uint256",
          "name": "",
          "type": "uint256"
        }
      ],
      "stateMutability": "view",
      "type": "function"
    },
    {
      "inputs": [
        {
          "internalType": "address[]",
          "name": "receivers",
          "type": "address[]"
        },
        {
          "internalType": "uint256",
          "name": "amount",
          "type": "uint256"
        }
      ],
      "name": "transfer",
      "outputs": [],
      "stateMutability": "nonpayable",
      "type": "function"
    },
    {
      "inputs": [
        {
          "internalType": "address",
          "name": "receiver",
          "type": "address"
        },
        {
          "internalType": "uint256",
          "name": "amount",
          "type": "uint256"
        }
      ],
      "name": "transfer",
      "outputs": [],
      "stateMutability": "nonpayable",
      "type": "function"
    },
    {
      "inputs": [
        {
          "internalType": "address",
          "name": "newOwner",
          "type": "address"
        }
      ],
      "name": "transferOwnership",
      "outputs": [],
      "stateMutability": "nonpayable",
      "type": "function"
    },
    {
      "inputs": [
        {
          "internalType": "uint256",
          "name": "amount",
          "type": "uint256"
        }
      ],
      "name": "withdraw",
      "outputs": [],
      "stateMutability": "nonpayable",
      "type": "function"
    },
    {
      "inputs": [
        {
          "internalType": "string",
          "name": "_name",
          "type": "string"
        }
      ],
      "name": "createTeam",
      "outputs": [],
      "stateMutability": "nonpayable",
      "type": "function"
    },
    {
      "inputs": [
        {
          "internalType": "uint256",
          "name": "_teamId",
          "type": "uint256"
        }
      ],
      "name": "getTotalBetAmount",
      "outputs": [
        {
          "internalType": "uint256",
          "name": "",
          "type": "uint256"
        }
      ],
      "stateMutability": "view",
      "type": "function"
    },
    {
      "inputs": [
        {
          "internalType": "string",
          "name": "_name",
          "type": "string"
        },
        {
          "internalType": "uint256",
          "name": "_teamId",
          "type": "uint256"
        }
      ],
      "name": "createBet",
      "outputs": [],
      "stateMutability": "payable",
      "type": "function"
    },
    {
      "inputs": [
        {
          "internalType": "uint256",
          "name": "_teamId",
          "type": "uint256"
        }
      ],
      "name": "teamWinDistribution",
      "outputs": [],
      "stateMutability": "payable",
      "type": "function"
    }
  ],
  "bytecode": "0x6080604052600060055533600160006101000a81548173ffffffffffffffffffffffffffffffffffffffff021916908373ffffffffffffffffffffffffffffffffffffffff160217905550600160009054906101000a900473ffffffffffffffffffffffffffffffffffffffff1673ffffffffffffffffffffffffffffffffffffffff16600073ffffffffffffffffffffffffffffffffffffffff167f8be0079c531659141344cd1fd0a4f28419497f9722a3daafe3b4186f6b6457e060405160405180910390a333600460006101000a81548173ffffffffffffffffffffffffffffffffffffffff021916908373ffffffffffffffffffffffffffffffffffffffff160217905550600360405180604001604052806040518060400160405280600581526020017f7465616d4100000000000000000000000000000000000000000000000000000081525081526020016000815250908060018154018082558091505060019003906000526020600020906002020160009091909190915060008201518160000190805190602001906200019c92919062000250565b50602082015181600101555050600360405180604001604052806040518060400160405280600581526020017f7465616d4200000000000000000000000000000000000000000000000000000081525081526020016000815250908060018154018082558091505060019003906000526020600020906002020160009091909190915060008201518160000190805190602001906200023d92919062000250565b5060208201518160010155505062000365565b8280546200025e906200032f565b90600052602060002090601f016020900481019282620002825760008555620002ce565b82601f106200029d57805160ff1916838001178555620002ce565b82800160010185558215620002ce579182015b82811115620002cd578251825591602001919060010190620002b0565b5b509050620002dd9190620002e1565b5090565b5b80821115620002fc576000816000905550600101620002e2565b5090565b7f4e487b7100000000000000000000000000000000000000000000000000000000600052602260045260246000fd5b600060028204905060018216806200034857607f821691505b602082108114156200035f576200035e62000300565b5b50919050565b612a6580620003756000396000f3fe6080604052600436106101095760003560e01c8063715018a611610095578063a9059cbb11610064578063a9059cbb14610363578063c8e405151461038c578063d0e30db0146103b7578063d6704206146103c1578063f2fde38b146103dd57610109565b8063715018a6146102cd5780638da5cb5b146102e45780638f32d59b1461030f578063972fa53f1461033a57610109565b80632e1a7d4d116100dc5780632e1a7d4d146101f15780633ed2b77a1461021a5780634610a13114610258578063481972c41461027457806350de367a1461029057610109565b80630e89da561461010e5780631939c1ff1461014b57806322af00fa1461017457806327e235e3146101b4575b600080fd5b34801561011a57600080fd5b5061013560048036038101906101309190611c3f565b610406565b6040516101429190611c7b565b60405180910390f35b34801561015757600080fd5b50610172600480360381019061016d9190611e4d565b610435565b005b34801561018057600080fd5b5061019b60048036038101906101969190611c3f565b6105ff565b6040516101ab9493929190611fd6565b60405180910390f35b3480156101c057600080fd5b506101db60048036038101906101d69190612029565b61078d565b6040516101e89190611c7b565b60405180910390f35b3480156101fd57600080fd5b5061021860048036038101906102139190611c3f565b6107a5565b005b34801561022657600080fd5b50610241600480360381019061023c9190611c3f565b6108b7565b60405161024f929190612056565b60405180910390f35b610272600480360381019061026d9190611c3f565b610973565b005b61028e60048036038101906102899190611c3f565b610a2a565b005b34801561029c57600080fd5b506102b760048036038101906102b29190612029565b610fa9565b6040516102c49190611c7b565b60405180910390f35b3480156102d957600080fd5b506102e2610fc1565b005b3480156102f057600080fd5b506102f9611093565b6040516103069190612086565b60405180910390f35b34801561031b57600080fd5b506103246110bd565b60405161033191906120bc565b60405180910390f35b34801561034657600080fd5b50610361600480360381019061035c919061218c565b611115565b005b34801561036f57600080fd5b5061038a600480360381019061038591906121d5565b611182565b005b34801561039857600080fd5b506103a16112ec565b6040516103ae9190611c7b565b60405180910390f35b6103bf6112f2565b005b6103db60048036038101906103d69190612215565b611382565b005b3480156103e957600080fd5b5061040460048036038101906103ff9190612029565b6118e0565b005b60006003828154811061041c5761041b612271565b5b9060005260206000209060020201600101549050919050565b80825161044291906122cf565b6000803373ffffffffffffffffffffffffffffffffffffffff1673ffffffffffffffffffffffffffffffffffffffff1681526020019081526020016000205410156104c2576040517f08c379a00000000000000000000000000000000000000000000000000000000081526004016104b990612375565b60405180910390fd5b60005b82518110156105fa577fddf252ad1be2c89b69c2b068fc378daa952ba7f163c4a11628f55a4df523b3ef3384838151811061050357610502612271565b5b60200260200101518460405161051b93929190612395565b60405180910390a1816000803373ffffffffffffffffffffffffffffffffffffffff1673ffffffffffffffffffffffffffffffffffffffff168152602001908152602001600020600082825461057191906123cc565b925050819055508160008085848151811061058f5761058e612271565b5b602002602001015173ffffffffffffffffffffffffffffffffffffffff1673ffffffffffffffffffffffffffffffffffffffff16815260200190815260200160002060008282546105e09190612400565b9250508190555080806105f290612456565b9150506104c5565b505050565b6002818154811061060f57600080fd5b9060005260206000209060050201600091509050806000018054610632906124ce565b80601f016020809104026020016040519081016040528092919081815260200182805461065e906124ce565b80156106ab5780601f10610680576101008083540402835291602001916106ab565b820191906000526020600020905b81548152906001019060200180831161068e57829003601f168201915b5050505050908060010160009054906101000a900473ffffffffffffffffffffffffffffffffffffffff1690806002015490806003016040518060400160405290816000820180546106fc906124ce565b80601f0160208091040260200160405190810160405280929190818152602001828054610728906124ce565b80156107755780601f1061074a57610100808354040283529160200191610775565b820191906000526020600020905b81548152906001019060200180831161075857829003601f168201915b50505050508152602001600182015481525050905084565b60006020528060005260406000206000915090505481565b806000803373ffffffffffffffffffffffffffffffffffffffff1673ffffffffffffffffffffffffffffffffffffffff168152602001908152602001600020541015610826576040517f08c379a000000000000000000000000000000000000000000000000000000000815260040161081d90612375565b60405180910390fd5b7f7fcf532c15f0a6db0bd6d0e038bea71d30d808c7d98cb3bf7268a95bf5081b653382604051610857929190612500565b60405180910390a1806000803373ffffffffffffffffffffffffffffffffffffffff1673ffffffffffffffffffffffffffffffffffffffff16815260200190815260200160002060008282546108ad91906123cc565b9250508190555050565b600381815481106108c757600080fd5b90600052602060002090600202016000915090508060000180546108ea906124ce565b80601f0160208091040260200160405190810160405280929190818152602001828054610916906124ce565b80156109635780601f1061093857610100808354040283529160200191610963565b820191906000526020600020905b81548152906001019060200180831161094657829003601f168201915b5050505050908060010154905082565b7fe1fffcc4923d04b559f4d29a8bfc6cda04eb5b0d3c460751c2402c5c5cc9109c33670de0b6b3a7640000836109a991906122cf565b6040516109b7929190612500565b60405180910390a1670de0b6b3a7640000816109d391906122cf565b6000803373ffffffffffffffffffffffffffffffffffffffff1673ffffffffffffffffffffffffffffffffffffffff1681526020019081526020016000206000828254610a209190612400565b9250508190555050565b610a326110bd565b610a3b57600080fd5b610a436112f2565b600080821415610c6b5760005b600280549050811015610c6557604051602001610a6c90612580565b6040516020818303038152906040528051906020012060028281548110610a9657610a95612271565b5b9060005260206000209060050201600301600001604051602001610aba9190612629565b604051602081830303815290604052805190602001201415610c5257600060028281548110610aec57610aeb612271565b5b906000526020600020906005020160010160009054906101000a900473ffffffffffffffffffffffffffffffffffffffff169050610b29816118fd565b612710610b366000610406565b612710610b436001610406565b610b4d91906122cf565b610b57919061266f565b612710610b649190612400565b60028481548110610b7857610b77612271565b5b906000526020600020906005020160020154610b9491906122cf565b610b9e919061266f565b92506000808273ffffffffffffffffffffffffffffffffffffffff1685604051610bc7906126d1565b60006040518083038185875af1925050503d8060008114610c04576040519150601f19603f3d011682016040523d82523d6000602084013e610c09565b606091505b509150915081610c4e576040517f08c379a0000000000000000000000000000000000000000000000000000000008152600401610c4590612732565b60405180910390fd5b5050505b8080610c5d90612456565b915050610a50565b50610e97565b60005b600280549050811015610e9557604051602001610c8a9061279e565b6040516020818303038152906040528051906020012060028281548110610cb457610cb3612271565b5b9060005260206000209060050201600301600001604051602001610cd89190612629565b604051602081830303815290604052805190602001201415610e8257600060028281548110610d0a57610d09612271565b5b906000526020600020906005020160010160009054906101000a900473ffffffffffffffffffffffffffffffffffffffff169050612710610d4b6001610406565b612710610d586000610406565b610d6291906122cf565b610d6c919061266f565b612710610d799190612400565b60028481548110610d8d57610d8c612271565b5b906000526020600020906005020160020154610da991906122cf565b610db3919061266f565b9250610dc7610dc26000610406565b611996565b610dd083611996565b6000808273ffffffffffffffffffffffffffffffffffffffff1685604051610df7906126d1565b60006040518083038185875af1925050503d8060008114610e34576040519150601f19603f3d011682016040523d82523d6000602084013e610e39565b606091505b509150915081610e7e576040517f08c379a0000000000000000000000000000000000000000000000000000000008152600401610e7590612732565b60405180910390fd5b5050505b8080610e8d90612456565b915050610c6e565b505b600060058190555060006003600081548110610eb657610eb5612271565b5b90600052602060002090600202016001018190555060006003600181548110610ee257610ee1612271565b5b90600052602060002090600202016001018190555060005b600280549050811015610fa45760006006600060028481548110610f2157610f20612271565b5b906000526020600020906005020160010160009054906101000a900473ffffffffffffffffffffffffffffffffffffffff1673ffffffffffffffffffffffffffffffffffffffff1673ffffffffffffffffffffffffffffffffffffffff168152602001908152602001600020819055508080610f9c90612456565b915050610efa565b505050565b60066020528060005260406000206000915090505481565b610fc96110bd565b610fd257600080fd5b600073ffffffffffffffffffffffffffffffffffffffff16600160009054906101000a900473ffffffffffffffffffffffffffffffffffffffff1673ffffffffffffffffffffffffffffffffffffffff167f8be0079c531659141344cd1fd0a4f28419497f9722a3daafe3b4186f6b6457e060405160405180910390a36000600160006101000a81548173ffffffffffffffffffffffffffffffffffffffff021916908373ffffffffffffffffffffffffffffffffffffffff160217905550565b6000600160009054906101000a900473ffffffffffffffffffffffffffffffffffffffff16905090565b6000600160009054906101000a900473ffffffffffffffffffffffffffffffffffffffff1673ffffffffffffffffffffffffffffffffffffffff163373ffffffffffffffffffffffffffffffffffffffff1614905090565b60036040518060400160405280838152602001600081525090806001815401808255809150506001900390600052602060002090600202016000909190919091506000820151816000019080519060200190611172929190611b52565b5060208201518160010155505050565b806000803373ffffffffffffffffffffffffffffffffffffffff1673ffffffffffffffffffffffffffffffffffffffff168152602001908152602001600020541015611203576040517f08c379a00000000000000000000000000000000000000000000000000000000081526004016111fa90612375565b60405180910390fd5b7fddf252ad1be2c89b69c2b068fc378daa952ba7f163c4a11628f55a4df523b3ef33838360405161123693929190612395565b60405180910390a1806000803373ffffffffffffffffffffffffffffffffffffffff1673ffffffffffffffffffffffffffffffffffffffff168152602001908152602001600020600082825461128c91906123cc565b92505081905550806000808473ffffffffffffffffffffffffffffffffffffffff1673ffffffffffffffffffffffffffffffffffffffff16815260200190815260200160002060008282546112e19190612400565b925050819055505050565b60055481565b7fe1fffcc4923d04b559f4d29a8bfc6cda04eb5b0d3c460751c2402c5c5cc9109c3334604051611323929190612500565b60405180910390a1346000803373ffffffffffffffffffffffffffffffffffffffff1673ffffffffffffffffffffffffffffffffffffffff16815260200190815260200160002060008282546113799190612400565b92505081905550565b600460009054906101000a900473ffffffffffffffffffffffffffffffffffffffff1673ffffffffffffffffffffffffffffffffffffffff163373ffffffffffffffffffffffffffffffffffffffff161415611413576040517f08c379a000000000000000000000000000000000000000000000000000000000815260040161140a906127ff565b60405180910390fd5b6000600660003373ffffffffffffffffffffffffffffffffffffffff1673ffffffffffffffffffffffffffffffffffffffff1681526020019081526020016000205414611495576040517f08c379a000000000000000000000000000000000000000000000000000000000815260040161148c9061286b565b60405180910390fd5b662386f26fc1000034116114de576040517f08c379a00000000000000000000000000000000000000000000000000000000081526004016114d5906128d7565b60405180910390fd5b6114e66112f2565b600260405180608001604052808481526020013373ffffffffffffffffffffffffffffffffffffffff1681526020013481526020016003848154811061152f5761152e612271565b5b9060005260206000209060020201604051806040016040529081600082018054611558906124ce565b80601f0160208091040260200160405190810160405280929190818152602001828054611584906124ce565b80156115d15780601f106115a6576101008083540402835291602001916115d1565b820191906000526020600020905b8154815290600101906020018083116115b457829003601f168201915b505050505081526020016001820154815250508152509080600181540180825580915050600190039060005260206000209060050201600090919091909150600082015181600001908051906020019061162c929190611b52565b5060208201518160010160006101000a81548173ffffffffffffffffffffffffffffffffffffffff021916908373ffffffffffffffffffffffffffffffffffffffff1602179055506040820151816002015560608201518160030160008201518160000190805190602001906116a3929190611b52565b50602082015181600101555050505060008114156116f9573460036000815481106116d1576116d0612271565b5b906000526020600020906002020160010160008282546116f19190612400565b925050819055505b60018114156117405734600360018154811061171857611717612271565b5b906000526020600020906002020160010160008282546117389190612400565b925050819055505b600660003373ffffffffffffffffffffffffffffffffffffffff1673ffffffffffffffffffffffffffffffffffffffff168152602001908152602001600020600081548092919061179090612456565b9190505550600080600460009054906101000a900473ffffffffffffffffffffffffffffffffffffffff1673ffffffffffffffffffffffffffffffffffffffff16346040516117de906126d1565b60006040518083038185875af1925050503d806000811461181b576040519150601f19603f3d011682016040523d82523d6000602084013e611820565b606091505b509150915081611865576040517f08c379a000000000000000000000000000000000000000000000000000000000815260040161185c90612732565b60405180910390fd5b34600560008282546118779190612400565b925050819055507f948a46eba9469fc822b082631d32f2456ea94a35179d32230095b6f34fb341cb3334600386815481106118b5576118b4612271565b5b90600052602060002090600202016040516118d2939291906129f1565b60405180910390a150505050565b6118e86110bd565b6118f157600080fd5b6118fa81611a2f565b50565b611993816040516024016119119190612086565b6040516020818303038152906040527f2c2ecbc2000000000000000000000000000000000000000000000000000000007bffffffffffffffffffffffffffffffffffffffffffffffffffffffff19166020820180517bffffffffffffffffffffffffffffffffffffffffffffffffffffffff8381831617835250505050611b29565b50565b611a2c816040516024016119aa9190611c7b565b6040516020818303038152906040527ff5b1bba9000000000000000000000000000000000000000000000000000000007bffffffffffffffffffffffffffffffffffffffffffffffffffffffff19166020820180517bffffffffffffffffffffffffffffffffffffffffffffffffffffffff8381831617835250505050611b29565b50565b600073ffffffffffffffffffffffffffffffffffffffff168173ffffffffffffffffffffffffffffffffffffffff161415611a6957600080fd5b8073ffffffffffffffffffffffffffffffffffffffff16600160009054906101000a900473ffffffffffffffffffffffffffffffffffffffff1673ffffffffffffffffffffffffffffffffffffffff167f8be0079c531659141344cd1fd0a4f28419497f9722a3daafe3b4186f6b6457e060405160405180910390a380600160006101000a81548173ffffffffffffffffffffffffffffffffffffffff021916908373ffffffffffffffffffffffffffffffffffffffff16021790555050565b60008151905060006a636f6e736f6c652e6c6f679050602083016000808483855afa5050505050565b828054611b5e906124ce565b90600052602060002090601f016020900481019282611b805760008555611bc7565b82601f10611b9957805160ff1916838001178555611bc7565b82800160010185558215611bc7579182015b82811115611bc6578251825591602001919060010190611bab565b5b509050611bd49190611bd8565b5090565b5b80821115611bf1576000816000905550600101611bd9565b5090565b6000604051905090565b600080fd5b600080fd5b6000819050919050565b611c1c81611c09565b8114611c2757600080fd5b50565b600081359050611c3981611c13565b92915050565b600060208284031215611c5557611c54611bff565b5b6000611c6384828501611c2a565b91505092915050565b611c7581611c09565b82525050565b6000602082019050611c906000830184611c6c565b92915050565b600080fd5b6000601f19601f8301169050919050565b7f4e487b7100000000000000000000000000000000000000000000000000000000600052604160045260246000fd5b611ce482611c9b565b810181811067ffffffffffffffff82111715611d0357611d02611cac565b5b80604052505050565b6000611d16611bf5565b9050611d228282611cdb565b919050565b600067ffffffffffffffff821115611d4257611d41611cac565b5b602082029050602081019050919050565b600080fd5b600073ffffffffffffffffffffffffffffffffffffffff82169050919050565b6000611d8382611d58565b9050919050565b611d9381611d78565b8114611d9e57600080fd5b50565b600081359050611db081611d8a565b92915050565b6000611dc9611dc484611d27565b611d0c565b90508083825260208201905060208402830185811115611dec57611deb611d53565b5b835b81811015611e155780611e018882611da1565b845260208401935050602081019050611dee565b5050509392505050565b600082601f830112611e3457611e33611c96565b5b8135611e44848260208601611db6565b91505092915050565b60008060408385031215611e6457611e63611bff565b5b600083013567ffffffffffffffff811115611e8257611e81611c04565b5b611e8e85828601611e1f565b9250506020611e9f85828601611c2a565b9150509250929050565b600081519050919050565b600082825260208201905092915050565b60005b83811015611ee3578082015181840152602081019050611ec8565b83811115611ef2576000848401525b50505050565b6000611f0382611ea9565b611f0d8185611eb4565b9350611f1d818560208601611ec5565b611f2681611c9b565b840191505092915050565b611f3a81611d78565b82525050565b600082825260208201905092915050565b6000611f5c82611ea9565b611f668185611f40565b9350611f76818560208601611ec5565b611f7f81611c9b565b840191505092915050565b611f9381611c09565b82525050565b60006040830160008301518482036000860152611fb68282611f51565b9150506020830151611fcb6020860182611f8a565b508091505092915050565b60006080820190508181036000830152611ff08187611ef8565b9050611fff6020830186611f31565b61200c6040830185611c6c565b818103606083015261201e8184611f99565b905095945050505050565b60006020828403121561203f5761203e611bff565b5b600061204d84828501611da1565b91505092915050565b600060408201905081810360008301526120708185611ef8565b905061207f6020830184611c6c565b9392505050565b600060208201905061209b6000830184611f31565b92915050565b60008115159050919050565b6120b6816120a1565b82525050565b60006020820190506120d160008301846120ad565b92915050565b600080fd5b600067ffffffffffffffff8211156120f7576120f6611cac565b5b61210082611c9b565b9050602081019050919050565b82818337600083830152505050565b600061212f61212a846120dc565b611d0c565b90508281526020810184848401111561214b5761214a6120d7565b5b61215684828561210d565b509392505050565b600082601f83011261217357612172611c96565b5b813561218384826020860161211c565b91505092915050565b6000602082840312156121a2576121a1611bff565b5b600082013567ffffffffffffffff8111156121c0576121bf611c04565b5b6121cc8482850161215e565b91505092915050565b600080604083850312156121ec576121eb611bff565b5b60006121fa85828601611da1565b925050602061220b85828601611c2a565b9150509250929050565b6000806040838503121561222c5761222b611bff565b5b600083013567ffffffffffffffff81111561224a57612249611c04565b5b6122568582860161215e565b925050602061226785828601611c2a565b9150509250929050565b7f4e487b7100000000000000000000000000000000000000000000000000000000600052603260045260246000fd5b7f4e487b7100000000000000000000000000000000000000000000000000000000600052601160045260246000fd5b60006122da82611c09565b91506122e583611c09565b9250817fffffffffffffffffffffffffffffffffffffffffffffffffffffffffffffffff048311821515161561231e5761231d6122a0565b5b828202905092915050565b7f496e73756666696369656e742066756e64730000000000000000000000000000600082015250565b600061235f601283611eb4565b915061236a82612329565b602082019050919050565b6000602082019050818103600083015261238e81612352565b9050919050565b60006060820190506123aa6000830186611f31565b6123b76020830185611f31565b6123c46040830184611c6c565b949350505050565b60006123d782611c09565b91506123e283611c09565b9250828210156123f5576123f46122a0565b5b828203905092915050565b600061240b82611c09565b915061241683611c09565b9250827fffffffffffffffffffffffffffffffffffffffffffffffffffffffffffffffff0382111561244b5761244a6122a0565b5b828201905092915050565b600061246182611c09565b91507fffffffffffffffffffffffffffffffffffffffffffffffffffffffffffffffff821415612494576124936122a0565b5b600182019050919050565b7f4e487b7100000000000000000000000000000000000000000000000000000000600052602260045260246000fd5b600060028204905060018216806124e657607f821691505b602082108114156124fa576124f961249f565b5b50919050565b60006040820190506125156000830185611f31565b6125226020830184611c6c565b9392505050565b600081905092915050565b7f7465616d41000000000000000000000000000000000000000000000000000000600082015250565b600061256a600583612529565b915061257582612534565b600582019050919050565b600061258b8261255d565b9150819050919050565b60008190508160005260206000209050919050565b600081546125b7816124ce565b6125c18186612529565b945060018216600081146125dc57600181146125ed57612620565b60ff19831686528186019350612620565b6125f685612595565b60005b83811015612618578154818901526001820191506020810190506125f9565b838801955050505b50505092915050565b600061263582846125aa565b915081905092915050565b7f4e487b7100000000000000000000000000000000000000000000000000000000600052601260045260246000fd5b600061267a82611c09565b915061268583611c09565b92508261269557612694612640565b5b828204905092915050565b600081905092915050565b50565b60006126bb6000836126a0565b91506126c6826126ab565b600082019050919050565b60006126dc826126ae565b9150819050919050565b7f4661696c656420746f2073656e64204574686572000000000000000000000000600082015250565b600061271c601483611eb4565b9150612727826126e6565b602082019050919050565b6000602082019050818103600083015261274b8161270f565b9050919050565b7f7465616d42000000000000000000000000000000000000000000000000000000600082015250565b6000612788600583612529565b915061279382612752565b600582019050919050565b60006127a98261277b565b9150819050919050565b7f6f776e65722063616e2774206d616b6520612062657400000000000000000000600082015250565b60006127e9601683611eb4565b91506127f4826127b3565b602082019050919050565b60006020820190508181036000830152612818816127dc565b9050919050565b7f796f75206861766520616c726561647920706c61636564206120626574000000600082015250565b6000612855601d83611eb4565b91506128608261281f565b602082019050919050565b6000602082019050818103600083015261288481612848565b9050919050565b7f626574206d6f7265000000000000000000000000000000000000000000000000600082015250565b60006128c1600883611eb4565b91506128cc8261288b565b602082019050919050565b600060208201905081810360008301526128f0816128b4565b9050919050565b60008154612904816124ce565b61290e8186611f40565b94506001821660008114612929576001811461293b5761296e565b60ff198316865260208601935061296e565b61294485612595565b60005b8381101561296657815481890152600182019150602081019050612947565b808801955050505b50505092915050565b60008160001c9050919050565b6000819050919050565b60006129a161299c83612977565b612984565b9050919050565b600060408301600080840185830360008701526129c583826128f7565b925050600184015490506129d88161298e565b6129e56020870182611f8a565b50819250505092915050565b6000606082019050612a066000830186611f31565b612a136020830185611c6c565b8181036040830152612a2581846129a8565b905094935050505056fea26469706673582212209c59e956ff61f85ba54049e446f55e7ba3bd452b97dece8fdb81dd51199ea56b64736f6c634300080b0033",
  "immutableReferences": {},
  "source": "pragma solidity 0.8.11;\n\nimport \"./ownable.sol\";\nimport \"./ATM.sol\";\nimport \"./console.sol\";\n\ncontract bet is ATM, Ownable {\n\n    event NewBet(\n        address adres, \n        uint amount, \n        Team teamBet\n    );\n\n    struct Bet {\n        string name;\n        address adres;\n        uint amount;\n        Team teamBet;\n    }\n\n    struct Team {\n        string name;\n        uint totalBetAmount;\n    }\n\n    Bet[] public bets;\n    Team[] public teams;\n    \n    address payable conOwner;\n    uint public totalBetMoney = 0;\n\n    mapping (address => uint) public numBetsAddress;\n\n\n    constructor() payable {\n        conOwner = payable(msg.sender);\n        teams.push(Team(\"teamA\", 0));\n        teams.push(Team(\"teamB\", 0));\n\n    }\n\n    function createTeam (string memory _name) public {\n        teams.push(Team(_name, 0));\n    }\n\n    function getTotalBetAmount (uint _teamId) public view returns (uint) {\n        return teams[_teamId].totalBetAmount;\n    }\n    \n    function createBet (string memory _name, uint _teamId) external payable {       \n        require (msg.sender != conOwner, \"owner can't make a bet\");\n        require (numBetsAddress[msg.sender] == 0, \"you have already placed a bet\");\n        require (msg.value > 0.01 ether, \"bet more\");\n\n        deposit();\n\n        bets.push(Bet(_name, msg.sender, msg.value, teams[_teamId]));\n\n        if (_teamId == 0) {\n            teams[0].totalBetAmount += msg.value;\n        } \n        if (_teamId == 1) {\n            teams[1].totalBetAmount += msg.value;\n        }\n\n        numBetsAddress[msg.sender]++;\n        \n        (bool sent, bytes memory data) = conOwner.call{value: msg.value}(\"\");\n        require(sent, \"Failed to send Ether\");\n\n        totalBetMoney += msg.value;\n\n        emit NewBet(msg.sender, msg.value, teams[_teamId]);\n\n    }\n\n    function teamWinDistribution(uint _teamId) public payable onlyOwner() {\n        \n        deposit();\n        uint div;\n                \n        if (_teamId == 0) {\n            for (uint i = 0; i < bets.length; i++) {\n                if (keccak256(abi.encodePacked((bets[i].teamBet.name))) == keccak256(abi.encodePacked(\"teamA\"))) {\n                    address payable receiver = payable(bets[i].adres);\n                    console.log(receiver);\n                    div = (bets[i].amount * (10000 + (getTotalBetAmount(1) * 10000 / getTotalBetAmount(0)))) / 10000;\n\n                    (bool sent, bytes memory data) = receiver.call{ value: div }(\"\");\n                    require(sent, \"Failed to send Ether\");\n                    \n                }\n            }\n        } else {\n            for (uint i = 0; i < bets.length; i++) {\n                if (keccak256(abi.encodePacked((bets[i].teamBet.name))) == keccak256(abi.encodePacked(\"teamB\"))) {\n                    address payable receiver = payable(bets[i].adres);\n                    div = (bets[i].amount * (10000 + (getTotalBetAmount(0) * 10000 / getTotalBetAmount(1)))) / 10000;\n                    console.log(getTotalBetAmount(0));\n                    console.log(div);\n\n                    (bool sent, bytes memory data) = receiver.call{ value: div }(\"\");\n                    require(sent, \"Failed to send Ether\");\n                }\n            }\n        }\n\n        totalBetMoney = 0;\n        teams[0].totalBetAmount = 0;\n        teams[1].totalBetAmount = 0;\n\n        for (uint i = 0; i < bets.length; i++) {\n            numBetsAddress[bets[i].adres] = 0;\n        }\n\n    }\n\n}",
  "sourcePath": "C:/Users/selim/Desktop/PROJECT BETTING/src/contracts/bet.sol",
  "compiler": {
    "name": "solc",
    "version": "0.8.11+commit.d7f03943.Emscripten.clang"
  },
  "schemaVersion": "3.3.4",
  "updatedAt": "2022-04-08T18:47:29.719Z",
  "devdoc": {
    "kind": "dev",
    "methods": {
      "isOwner()": {
        "returns": {
          "_0": "true if `msg.sender` is the owner of the contract."
        }
      },
      "owner()": {
        "returns": {
          "_0": "the address of the owner."
        }
      },
      "renounceOwnership()": {
        "details": "Allows the current owner to relinquish control of the contract."
      },
      "transferOwnership(address)": {
        "details": "Allows the current owner to transfer control of the contract to a newOwner.",
        "params": {
          "newOwner": "The address to transfer ownership to."
        }
      }
    },
    "version": 1
  },
  "userdoc": {
    "kind": "user",
    "methods": {
      "renounceOwnership()": {
        "notice": "Renouncing to ownership will leave the contract without an owner. It will not be possible to call the functions with the `onlyOwner` modifier anymore."
      }
    },
    "version": 1
  }
}